{
  "contractName": "Access2",
  "abi": [
    {
      "inputs": [],
      "name": "a",
      "outputs": [
        {
          "internalType": "uint256",
          "name": "",
          "type": "uint256"
        }
      ],
      "stateMutability": "view",
      "type": "function"
    },
    {
      "inputs": [
        {
          "internalType": "uint256",
          "name": "_value",
          "type": "uint256"
        }
      ],
      "name": "changeB",
      "outputs": [],
      "stateMutability": "nonpayable",
      "type": "function"
    }
  ],
  "bytecode": "0x6080604052600360005534801561001557600080fd5b506101e7806100256000396000f3fe608060405234801561001057600080fd5b50600436106100365760003560e01c80630dbe671f1461003b57806366ff86bd14610059575b600080fd5b610043610075565b60405161005091906100f0565b60405180910390f35b610073600480360381019061006e91906100b8565b61007b565b005b60005481565b6000600a8261008a919061010b565b905061009581610099565b5050565b8060008190555050565b6000813590506100b28161019a565b92915050565b6000602082840312156100ca57600080fd5b60006100d8848285016100a3565b91505092915050565b6100ea81610161565b82525050565b600060208201905061010560008301846100e1565b92915050565b600061011682610161565b915061012183610161565b9250827fffffffffffffffffffffffffffffffffffffffffffffffffffffffffffffffff038211156101565761015561016b565b5b828201905092915050565b6000819050919050565b7f4e487b7100000000000000000000000000000000000000000000000000000000600052601160045260246000fd5b6101a381610161565b81146101ae57600080fd5b5056fea26469706673582212206ca8517dee6f335efd2a0aa2c4ac1080ab40154e57022d0c80673d5e357825fb64736f6c63430008000033",
  "immutableReferences": {},
  "source": "// SPDX-License-Identifier: MIT\r\npragma solidity ^0.8.0;\r\n\r\ncontract Access1 {\r\n    uint256 public a = 5;\r\n    uint256 private b = 5;\r\n}\r\n\r\ncontract Access2 {\r\n    uint256 public a = 3;\r\n\r\n    function changeA(uint256 _value) internal {\r\n        a = _value;\r\n    }\r\n\r\n    function changeB(uint256 _value) public {\r\n        uint256 b = _value + 10;\r\n        changeA(b);\r\n    }\r\n}",
  "sourcePath": "/home/char1ey/workspace/Ethereum/syntax/contracts/5.sol",
  "compiler": {
    "name": "solc",
    "version": "0.8.0+commit.c7dfd78e.Emscripten.clang"
  },
  "schemaVersion": "3.4.14",
  "updatedAt": "2023-05-30T05:42:08.907Z",
  "devdoc": {
    "kind": "dev",
    "methods": {},
    "version": 1
  },
  "userdoc": {
    "kind": "user",
    "methods": {},
    "version": 1
  }
}