{
  "contractName": "Access1",
  "abi": [
    {
      "inputs": [],
      "name": "a",
      "outputs": [
        {
          "internalType": "uint256",
          "name": "",
          "type": "uint256"
        }
      ],
      "stateMutability": "view",
      "type": "function"
    }
  ],
  "bytecode": "0x60806040526005600055600560015534801561001a57600080fd5b5060b3806100296000396000f3fe6080604052348015600f57600080fd5b506004361060285760003560e01c80630dbe671f14602d575b600080fd5b60336047565b604051603e9190605a565b60405180910390f35b60005481565b6054816073565b82525050565b6000602082019050606d6000830184604d565b92915050565b600081905091905056fea26469706673582212207eb7c7e65eeaf8448b2374cdc25d34242f0e18403d51b9b5a2dea4bd7a86453e64736f6c63430008000033",
  "immutableReferences": {},
  "source": "// SPDX-License-Identifier: MIT\r\npragma solidity ^0.8.0;\r\n\r\ncontract Access1 {\r\n    uint256 public a = 5;\r\n    uint256 private b = 5;\r\n}\r\n\r\ncontract Access2 {\r\n    uint256 public a = 3;\r\n\r\n    function changeA(uint256 _value) internal {\r\n        a = _value;\r\n    }\r\n\r\n    function changeB(uint256 _value) public {\r\n        uint256 b = _value + 10;\r\n        changeA(b);\r\n    }\r\n}",
  "sourcePath": "/home/char1ey/workspace/Ethereum/syntax/contracts/5.sol",
  "compiler": {
    "name": "solc",
    "version": "0.8.0+commit.c7dfd78e.Emscripten.clang"
  },
  "schemaVersion": "3.4.14",
  "updatedAt": "2023-05-30T05:42:08.907Z",
  "devdoc": {
    "kind": "dev",
    "methods": {},
    "version": 1
  },
  "userdoc": {
    "kind": "user",
    "methods": {},
    "version": 1
  }
}