{
  "contractName": "Access1",
  "abi": [
    {
      "inputs": [],
      "name": "a",
      "outputs": [
        {
          "internalType": "uint256",
          "name": "",
          "type": "uint256"
        }
      ],
      "stateMutability": "view",
      "type": "function",
      "constant": true
    }
  ],
  "bytecode": "0x60806040526005600055600560015534801561001a57600080fd5b5060b3806100296000396000f3fe6080604052348015600f57600080fd5b506004361060285760003560e01c80630dbe671f14602d575b600080fd5b60336047565b604051603e9190605a565b60405180910390f35b60005481565b6054816073565b82525050565b6000602082019050606d6000830184604d565b92915050565b600081905091905056fea2646970667358221220b292577adb7b12c68ee38de9a2d809b9e91bcc4a95d6f7928a24119dbfeff75064736f6c63430008000033",
  "immutableReferences": {},
  "source": "// SPDX-License-Identifier: MIT\npragma solidity ^0.8.0;\n\ncontract Access1 {\n    uint256 public a = 5;\n    uint256 private b = 5;\n}\n\n// contract Access2 {\n//     uint256 public a = 3;\n\n//     function changeA(uint256 _value) public {\n//         a = _value;\n//     }\n\n//     function get_a() view public returns( uint256 ) {\n//         return a;\n//     }\n// }\n\n// contract Access3 {\n//     Access2 instance = new Access2();\n\n//     function changeA1(uint256 _value) public {\n//         instance.changeA(_value);\n//     }\n\n//     function use_public_example() view public returns (uint256) {\n//         return instance.get_a();\n//     }\n// }",
  "sourcePath": "/root/char1ey/workspace/Ethereum/Solidity/contracts/5.sol",
  "compiler": {
    "name": "solc",
    "version": "0.8.0+commit.c7dfd78e.Emscripten.clang"
  },
  "schemaVersion": "3.4.14",
  "updatedAt": "2023-05-29T04:53:42.322Z",
  "networkType": "ethereum",
  "devdoc": {
    "kind": "dev",
    "methods": {},
    "version": 1
  },
  "userdoc": {
    "kind": "user",
    "methods": {},
    "version": 1
  }
}