{
  "contractName": "Access2",
  "abi": [
    {
      "inputs": [],
      "name": "a",
      "outputs": [
        {
          "internalType": "uint256",
          "name": "",
          "type": "uint256"
        }
      ],
      "stateMutability": "view",
      "type": "function"
    },
    {
      "inputs": [
        {
          "internalType": "uint256",
          "name": "_value",
          "type": "uint256"
        }
      ],
      "name": "changeB",
      "outputs": [],
      "stateMutability": "nonpayable",
      "type": "function"
    }
  ],
  "bytecode": "0x6080604052600360005534801561001557600080fd5b506101e7806100256000396000f3fe608060405234801561001057600080fd5b50600436106100365760003560e01c80630dbe671f1461003b57806366ff86bd14610059575b600080fd5b610043610075565b60405161005091906100f0565b60405180910390f35b610073600480360381019061006e91906100b8565b61007b565b005b60005481565b6000600a8261008a919061010b565b905061009581610099565b5050565b8060008190555050565b6000813590506100b28161019a565b92915050565b6000602082840312156100ca57600080fd5b60006100d8848285016100a3565b91505092915050565b6100ea81610161565b82525050565b600060208201905061010560008301846100e1565b92915050565b600061011682610161565b915061012183610161565b9250827fffffffffffffffffffffffffffffffffffffffffffffffffffffffffffffffff038211156101565761015561016b565b5b828201905092915050565b6000819050919050565b7f4e487b7100000000000000000000000000000000000000000000000000000000600052601160045260246000fd5b6101a381610161565b81146101ae57600080fd5b5056fea264697066735822122041d76b1c23fad710a5047b2738ada9fec5f4f34ca9c3ed41ee671882939d530864736f6c63430008000033",
  "immutableReferences": {},
  "source": "// SPDX-License-Identifier: MIT\npragma solidity ^0.8.0;\n\ncontract Access1 {\n    uint256 public a = 5;\n    uint256 private b = 5;\n}\n\ncontract Access2 {\n    uint256 public a = 3;\n\n    function changeA(uint256 _value) internal {\n        a = _value;\n    }\n\n    function changeB(uint256 _value) public {\n        uint256 b = _value + 10;\n        changeA(b);\n    }\n}",
  "sourcePath": "/root/char1ey/workspace/Ethereum/Solidity/contracts/5.sol",
  "compiler": {
    "name": "solc",
    "version": "0.8.0+commit.c7dfd78e.Emscripten.clang"
  },
  "schemaVersion": "3.4.14",
  "updatedAt": "2023-05-29T16:06:17.115Z",
  "devdoc": {
    "kind": "dev",
    "methods": {},
    "version": 1
  },
  "userdoc": {
    "kind": "user",
    "methods": {},
    "version": 1
  }
}