{
  "contractName": "Access1",
  "abi": [
    {
      "inputs": [],
      "name": "a",
      "outputs": [
        {
          "internalType": "uint256",
          "name": "",
          "type": "uint256"
        }
      ],
      "stateMutability": "view",
      "type": "function"
    }
  ],
  "bytecode": "0x60806040526005600055600560015534801561001a57600080fd5b5060b3806100296000396000f3fe6080604052348015600f57600080fd5b506004361060285760003560e01c80630dbe671f14602d575b600080fd5b60336047565b604051603e9190605a565b60405180910390f35b60005481565b6054816073565b82525050565b6000602082019050606d6000830184604d565b92915050565b600081905091905056fea2646970667358221220eccf06de06eba1b3c91765d8b32cbe032969b0261e7b216d6c6bb176c2e15c5b64736f6c63430008000033",
  "immutableReferences": {},
  "source": "// SPDX-License-Identifier: MIT\npragma solidity ^0.8.0;\n\ncontract Access1 {\n    uint256 public a = 5;\n    uint256 private b = 5;\n}\n\ncontract Access2 {\n    uint256 public a = 3;\n\n    function changeA(uint256 _value) internal {\n        a = _value;\n    }\n\n    function changeB(uint256 _value) public {\n        uint256 b = _value + 10;\n        changeA(b);\n    }\n}",
  "sourcePath": "/root/char1ey/workspace/Ethereum/Solidity/contracts/5.sol",
  "compiler": {
    "name": "solc",
    "version": "0.8.0+commit.c7dfd78e.Emscripten.clang"
  },
  "schemaVersion": "3.4.14",
  "updatedAt": "2023-05-29T16:06:17.114Z",
  "devdoc": {
    "kind": "dev",
    "methods": {},
    "version": 1
  },
  "userdoc": {
    "kind": "user",
    "methods": {},
    "version": 1
  }
}