{
  "contractName": "Bird",
  "abi": [
    {
      "inputs": [
        {
          "internalType": "string",
          "name": "_eat",
          "type": "string"
        }
      ],
      "stateMutability": "nonpayable",
      "type": "constructor"
    },
    {
      "inputs": [],
      "name": "eat",
      "outputs": [
        {
          "internalType": "string",
          "name": "",
          "type": "string"
        }
      ],
      "stateMutability": "view",
      "type": "function"
    },
    {
      "inputs": [],
      "name": "legs",
      "outputs": [
        {
          "internalType": "uint256",
          "name": "",
          "type": "uint256"
        }
      ],
      "stateMutability": "view",
      "type": "function"
    },
    {
      "inputs": [],
      "name": "wings",
      "outputs": [
        {
          "internalType": "uint256",
          "name": "",
          "type": "uint256"
        }
      ],
      "stateMutability": "view",
      "type": "function"
    },
    {
      "inputs": [],
      "name": "getWingsNum",
      "outputs": [
        {
          "internalType": "uint256",
          "name": "",
          "type": "uint256"
        }
      ],
      "stateMutability": "view",
      "type": "function"
    },
    {
      "inputs": [],
      "name": "getLegsNum",
      "outputs": [
        {
          "internalType": "uint256",
          "name": "",
          "type": "uint256"
        }
      ],
      "stateMutability": "view",
      "type": "function"
    },
    {
      "inputs": [],
      "name": "getNmae",
      "outputs": [
        {
          "internalType": "string",
          "name": "",
          "type": "string"
        }
      ],
      "stateMutability": "view",
      "type": "function"
    }
  ],
  "bytecode": "0x60806040526002600055600260015534801561001a57600080fd5b506040516106b83803806106b8833981810160405281019061003c9190610164565b8060029080519060200190610052929190610059565b50506102c9565b82805461006590610239565b90600052602060002090601f01602090048101928261008757600085556100ce565b82601f106100a057805160ff19168380011785556100ce565b828001600101855582156100ce579182015b828111156100cd5782518255916020019190600101906100b2565b5b5090506100db91906100df565b5090565b5b808211156100f85760008160009055506001016100e0565b5090565b600061010f61010a846101d6565b6101a5565b90508281526020810184848401111561012757600080fd5b610132848285610206565b509392505050565b600082601f83011261014b57600080fd5b815161015b8482602086016100fc565b91505092915050565b60006020828403121561017657600080fd5b600082015167ffffffffffffffff81111561019057600080fd5b61019c8482850161013a565b91505092915050565b6000604051905081810181811067ffffffffffffffff821117156101cc576101cb61029a565b5b8060405250919050565b600067ffffffffffffffff8211156101f1576101f061029a565b5b601f19601f8301169050602081019050919050565b60005b83811015610224578082015181840152602081019050610209565b83811115610233576000848401525b50505050565b6000600282049050600182168061025157607f821691505b602082108114156102655761026461026b565b5b50919050565b7f4e487b7100000000000000000000000000000000000000000000000000000000600052602260045260246000fd5b7f4e487b7100000000000000000000000000000000000000000000000000000000600052604160045260246000fd5b6103e0806102d86000396000f3fe608060405234801561001057600080fd5b50600436106100625760003560e01c8063340a2a4e14610067578063bf8fdd5514610085578063c9f252a6146100a3578063d68220c7146100c1578063db6fabbd146100df578063f4f33094146100fd575b600080fd5b61006f61011b565b60405161007c91906102a2565b60405180910390f35b61008d6101a9565b60405161009a91906102c4565b60405180910390f35b6100ab6101b3565b6040516100b891906102a2565b60405180910390f35b6100c9610245565b6040516100d691906102c4565b60405180910390f35b6100e761024b565b6040516100f491906102c4565b60405180910390f35b610105610254565b60405161011291906102c4565b60405180910390f35b6002805461012890610338565b80601f016020809104026020016040519081016040528092919081815260200182805461015490610338565b80156101a15780601f10610176576101008083540402835291602001916101a1565b820191906000526020600020905b81548152906001019060200180831161018457829003601f168201915b505050505081565b6000600154905090565b6060600280546101c290610338565b80601f01602080910402602001604051908101604052809291908181526020018280546101ee90610338565b801561023b5780601f106102105761010080835404028352916020019161023b565b820191906000526020600020905b81548152906001019060200180831161021e57829003601f168201915b5050505050905090565b60005481565b60008054905090565b60015481565b6000610265826102df565b61026f81856102ea565b935061027f818560208601610305565b61028881610399565b840191505092915050565b61029c816102fb565b82525050565b600060208201905081810360008301526102bc818461025a565b905092915050565b60006020820190506102d96000830184610293565b92915050565b600081519050919050565b600082825260208201905092915050565b6000819050919050565b60005b83811015610323578082015181840152602081019050610308565b83811115610332576000848401525b50505050565b6000600282049050600182168061035057607f821691505b602082108114156103645761036361036a565b5b50919050565b7f4e487b7100000000000000000000000000000000000000000000000000000000600052602260045260246000fd5b6000601f19601f830116905091905056fea26469706673582212204057ca37f3318e905a86acf06cd83f1b0e0f3951544c9abbf2ad0f3b446f8ecb64736f6c63430008000033",
  "immutableReferences": {},
  "source": "// SPDX-License-Identifier: MIT\r\npragma solidity ^0.8.0;\r\n\r\ncontract Bird {\r\n    uint256 public wings = 2;\r\n    uint256 public legs = 2;\r\n    string public eat;\r\n\r\n    constructor(string memory _eat){\r\n        eat = _eat;\r\n    }\r\n\r\n    function getWingsNum() view virtual public returns(uint256){\r\n        return wings;\r\n    }\r\n\r\n    function getLegsNum() view public returns(uint256){\r\n        return legs;\r\n    }\r\n    \r\n    function getNmae() view public returns(string memory){\r\n        return eat;\r\n    }\r\n}\r\n\r\ncontract Penguin is Bird(\"Fish\") {\r\n\r\n    function getWingsNum() view override public returns(uint256){\r\n        return wings - 2;\r\n    }\r\n}",
  "sourcePath": "/home/char1ey/workspace/Ethereum/syntax/contracts/11.sol",
  "compiler": {
    "name": "solc",
    "version": "0.8.0+commit.c7dfd78e.Emscripten.clang"
  },
  "schemaVersion": "3.4.14",
  "updatedAt": "2023-05-30T06:58:38.810Z",
  "devdoc": {
    "kind": "dev",
    "methods": {},
    "version": 1
  },
  "userdoc": {
    "kind": "user",
    "methods": {},
    "version": 1
  }
}