{
  "contractName": "Data_type",
  "abi": [
    {
      "inputs": [],
      "name": "a1",
      "outputs": [
        {
          "internalType": "bool",
          "name": "",
          "type": "bool"
        }
      ],
      "stateMutability": "view",
      "type": "function"
    },
    {
      "inputs": [],
      "name": "a2",
      "outputs": [
        {
          "internalType": "bool",
          "name": "",
          "type": "bool"
        }
      ],
      "stateMutability": "view",
      "type": "function"
    },
    {
      "inputs": [],
      "name": "a3",
      "outputs": [
        {
          "internalType": "bool",
          "name": "",
          "type": "bool"
        }
      ],
      "stateMutability": "view",
      "type": "function"
    },
    {
      "inputs": [],
      "name": "a4",
      "outputs": [
        {
          "internalType": "bool",
          "name": "",
          "type": "bool"
        }
      ],
      "stateMutability": "view",
      "type": "function"
    },
    {
      "inputs": [],
      "name": "a5",
      "outputs": [
        {
          "internalType": "bool",
          "name": "",
          "type": "bool"
        }
      ],
      "stateMutability": "view",
      "type": "function"
    },
    {
      "inputs": [],
      "name": "b1",
      "outputs": [
        {
          "internalType": "bytes4",
          "name": "",
          "type": "bytes4"
        }
      ],
      "stateMutability": "view",
      "type": "function"
    },
    {
      "inputs": [],
      "name": "b2",
      "outputs": [
        {
          "internalType": "bytes",
          "name": "",
          "type": "bytes"
        }
      ],
      "stateMutability": "view",
      "type": "function"
    },
    {
      "inputs": [],
      "name": "c1",
      "outputs": [
        {
          "internalType": "address",
          "name": "",
          "type": "address"
        }
      ],
      "stateMutability": "view",
      "type": "function"
    },
    {
      "inputs": [],
      "name": "d1",
      "outputs": [
        {
          "internalType": "int8",
          "name": "",
          "type": "int8"
        }
      ],
      "stateMutability": "view",
      "type": "function"
    },
    {
      "inputs": [],
      "name": "d2",
      "outputs": [
        {
          "internalType": "uint8",
          "name": "",
          "type": "uint8"
        }
      ],
      "stateMutability": "view",
      "type": "function"
    }
  ],
  "bytecode": "0x608060405260008060006101000a81548160ff021916908315150217905550600015600060016101000a81548160ff021916908315150217905550600115156000151514600060026101000a81548160ff02191690831515021790555060008015610068575060015b600060036101000a81548160ff02191690831515021790555060008061008c575060015b600060046101000a81548160ff021916908315150217905550631234567860e01b600060056101000a81548163ffffffff021916908360e01c02179055506040518060400160405280600681526020017f535452494e470000000000000000000000000000000000000000000000000000815250600190805190602001906101159291906101b8565b5073513467d8d19eb33e6a5bb570c96e46a56370c978600260006101000a81548173ffffffffffffffffffffffffffffffffffffffff021916908373ffffffffffffffffffffffffffffffffffffffff1602179055506001600260146101000a81548160ff021916908360000b60ff16021790555060ff600260156101000a81548160ff021916908360ff1602179055503480156101b257600080fd5b506102bc565b8280546101c49061025b565b90600052602060002090601f0160209004810192826101e6576000855561022d565b82601f106101ff57805160ff191683800117855561022d565b8280016001018555821561022d579182015b8281111561022c578251825591602001919060010190610211565b5b50905061023a919061023e565b5090565b5b8082111561025757600081600090555060010161023f565b5090565b6000600282049050600182168061027357607f821691505b602082108114156102875761028661028d565b5b50919050565b7f4e487b7100000000000000000000000000000000000000000000000000000000600052602260045260246000fd5b6105c1806102cb6000396000f3fe608060405234801561001057600080fd5b506004361061009e5760003560e01c80638c18f2f1116100665780638c18f2f1146101395780639426eef814610157578063969e9d0c14610175578063ee49500214610193578063f74ea418146101b15761009e565b80630add6ef2146100a3578063119552a1146100c15780635f57697c146100df578063615db6e1146100fd5780637ef1dbea1461011b575b600080fd5b6100ab6101cf565b6040516100b891906103ee565b60405180910390f35b6100c961025d565b6040516100d691906103b8565b60405180910390f35b6100e761026e565b6040516100f4919061039d565b60405180910390f35b610105610294565b60405161011291906103b8565b60405180910390f35b6101236102a7565b604051610130919061042b565b60405180910390f35b6101416102ba565b60405161014e9190610410565b60405180910390f35b61015f6102cd565b60405161016c91906103b8565b60405180910390f35b61017d6102e0565b60405161018a91906103b8565b60405180910390f35b61019b6102f3565b6040516101a891906103d3565b60405180910390f35b6101b9610306565b6040516101c691906103b8565b60405180910390f35b600180546101dc90610519565b80601f016020809104026020016040519081016040528092919081815260200182805461020890610519565b80156102555780601f1061022a57610100808354040283529160200191610255565b820191906000526020600020905b81548152906001019060200180831161023857829003601f168201915b505050505081565b60008054906101000a900460ff1681565b600260009054906101000a900473ffffffffffffffffffffffffffffffffffffffff1681565b600060049054906101000a900460ff1681565b600260159054906101000a900460ff1681565b600260149054906101000a900460000b81565b600060029054906101000a900460ff1681565b600060019054906101000a900460ff1681565b600060059054906101000a900460e01b81565b600060039054906101000a900460ff1681565b61032281610462565b82525050565b61033181610474565b82525050565b61034081610480565b82525050565b600061035182610446565b61035b8185610451565b935061036b8185602086016104e6565b6103748161057a565b840191505092915050565b610388816104ac565b82525050565b610397816104d9565b82525050565b60006020820190506103b26000830184610319565b92915050565b60006020820190506103cd6000830184610328565b92915050565b60006020820190506103e86000830184610337565b92915050565b600060208201905081810360008301526104088184610346565b905092915050565b6000602082019050610425600083018461037f565b92915050565b6000602082019050610440600083018461038e565b92915050565b600081519050919050565b600082825260208201905092915050565b600061046d826104b9565b9050919050565b60008115159050919050565b60007fffffffff0000000000000000000000000000000000000000000000000000000082169050919050565b60008160000b9050919050565b600073ffffffffffffffffffffffffffffffffffffffff82169050919050565b600060ff82169050919050565b60005b838110156105045780820151818401526020810190506104e9565b83811115610513576000848401525b50505050565b6000600282049050600182168061053157607f821691505b602082108114156105455761054461054b565b5b50919050565b7f4e487b7100000000000000000000000000000000000000000000000000000000600052602260045260246000fd5b6000601f19601f830116905091905056fea2646970667358221220032c94a7c92a0c1eb798acbf5afda497a10cf0d1de869a8f918299e1274f53df64736f6c63430008000033",
  "immutableReferences": {},
  "source": "// SPDX-License-Identifier: MIT\r\npragma solidity ^0.8.0;\r\n\r\ncontract Data_type {\r\n    bool public a1 = false;\r\n    bool public a2 = !false;\r\n    bool public a3 = false == true;\r\n    bool public a4 = false && true;\r\n    bool public a5 = false || true;\r\n\r\n    bytes4 public b1 = 0x12345678;\r\n    bytes public b2 = \"STRING\";\r\n\r\n    address public c1 = 0x513467D8d19eB33E6A5bB570C96E46A56370C978;\r\n\r\n    int8 public d1 = 1;\r\n    uint8 public d2 = 255;\r\n}",
  "sourcePath": "/home/char1ey/workspace/Ethereum/syntax/contracts/2.sol",
  "compiler": {
    "name": "solc",
    "version": "0.8.0+commit.c7dfd78e.Emscripten.clang"
  },
  "schemaVersion": "3.4.14",
  "updatedAt": "2023-05-30T05:42:08.902Z",
  "devdoc": {
    "kind": "dev",
    "methods": {},
    "version": 1
  },
  "userdoc": {
    "kind": "user",
    "methods": {},
    "version": 1
  }
}