{
  "contractName": "Eagle",
  "abi": [
    {
      "inputs": [],
      "name": "eat",
      "outputs": [
        {
          "internalType": "string",
          "name": "",
          "type": "string"
        }
      ],
      "stateMutability": "view",
      "type": "function",
      "constant": true
    },
    {
      "inputs": [],
      "name": "getLegsNum",
      "outputs": [
        {
          "internalType": "uint256",
          "name": "",
          "type": "uint256"
        }
      ],
      "stateMutability": "view",
      "type": "function",
      "constant": true
    },
    {
      "inputs": [],
      "name": "getNmae",
      "outputs": [
        {
          "internalType": "string",
          "name": "",
          "type": "string"
        }
      ],
      "stateMutability": "view",
      "type": "function",
      "constant": true
    },
    {
      "inputs": [],
      "name": "getWingsNum",
      "outputs": [
        {
          "internalType": "uint256",
          "name": "",
          "type": "uint256"
        }
      ],
      "stateMutability": "view",
      "type": "function",
      "constant": true
    },
    {
      "inputs": [],
      "name": "legs",
      "outputs": [
        {
          "internalType": "uint256",
          "name": "",
          "type": "uint256"
        }
      ],
      "stateMutability": "view",
      "type": "function",
      "constant": true
    },
    {
      "inputs": [],
      "name": "wings",
      "outputs": [
        {
          "internalType": "uint256",
          "name": "",
          "type": "uint256"
        }
      ],
      "stateMutability": "view",
      "type": "function",
      "constant": true
    }
  ],
  "bytecode": "0x60806040526002600055600260015534801561001a57600080fd5b506040518060400160405280600581526020017f536e616b65000000000000000000000000000000000000000000000000000000815250806002908051906020019061006792919061006e565b5050610172565b82805461007a90610111565b90600052602060002090601f01602090048101928261009c57600085556100e3565b82601f106100b557805160ff19168380011785556100e3565b828001600101855582156100e3579182015b828111156100e25782518255916020019190600101906100c7565b5b5090506100f091906100f4565b5090565b5b8082111561010d5760008160009055506001016100f5565b5090565b6000600282049050600182168061012957607f821691505b6020821081141561013d5761013c610143565b5b50919050565b7f4e487b7100000000000000000000000000000000000000000000000000000000600052602260045260246000fd5b6103e0806101816000396000f3fe608060405234801561001057600080fd5b50600436106100625760003560e01c8063340a2a4e14610067578063bf8fdd5514610085578063c9f252a6146100a3578063d68220c7146100c1578063db6fabbd146100df578063f4f33094146100fd575b600080fd5b61006f61011b565b60405161007c91906102a2565b60405180910390f35b61008d6101a9565b60405161009a91906102c4565b60405180910390f35b6100ab6101b3565b6040516100b891906102a2565b60405180910390f35b6100c9610245565b6040516100d691906102c4565b60405180910390f35b6100e761024b565b6040516100f491906102c4565b60405180910390f35b610105610254565b60405161011291906102c4565b60405180910390f35b6002805461012890610338565b80601f016020809104026020016040519081016040528092919081815260200182805461015490610338565b80156101a15780601f10610176576101008083540402835291602001916101a1565b820191906000526020600020905b81548152906001019060200180831161018457829003601f168201915b505050505081565b6000600154905090565b6060600280546101c290610338565b80601f01602080910402602001604051908101604052809291908181526020018280546101ee90610338565b801561023b5780601f106102105761010080835404028352916020019161023b565b820191906000526020600020905b81548152906001019060200180831161021e57829003601f168201915b5050505050905090565b60005481565b60008054905090565b60015481565b6000610265826102df565b61026f81856102ea565b935061027f818560208601610305565b61028881610399565b840191505092915050565b61029c816102fb565b82525050565b600060208201905081810360008301526102bc818461025a565b905092915050565b60006020820190506102d96000830184610293565b92915050565b600081519050919050565b600082825260208201905092915050565b6000819050919050565b60005b83811015610323578082015181840152602081019050610308565b83811115610332576000848401525b50505050565b6000600282049050600182168061035057607f821691505b602082108114156103645761036361036a565b5b50919050565b7f4e487b7100000000000000000000000000000000000000000000000000000000600052602260045260246000fd5b6000601f19601f830116905091905056fea26469706673582212207d3f946e1a7d24570bd232eed76ca382e4bbfdaa8ea52ccca0c19d8ae1fcc23464736f6c63430008000033",
  "immutableReferences": {},
  "source": "// SPDX-License-Identifier: MIT\r\npragma solidity ^0.8.0;\r\n\r\ncontract Bird {\r\n    uint256 public wings = 2;\r\n    uint256 public legs = 2;\r\n    string public eat;\r\n\r\n    constructor(string memory _eat){\r\n        eat = _eat;\r\n    }\r\n\r\n    function getWingsNum() view public returns(uint256){\r\n        return wings;\r\n    }\r\n\r\n    function getLegsNum() view public returns(uint256){\r\n        return legs;\r\n    }\r\n    \r\n    function getNmae() view public returns(string memory){\r\n        return eat;\r\n    }\r\n}\r\n\r\ncontract Eagle is Bird(\"Snake\") {\r\n\r\n}",
  "sourcePath": "/home/char1ey/workspace/Ethereum/syntax/contracts/10.sol",
  "compiler": {
    "name": "solc",
    "version": "0.8.0+commit.c7dfd78e.Emscripten.clang"
  },
  "schemaVersion": "3.4.14",
  "updatedAt": "2023-05-30T05:42:10.547Z",
  "networkType": "ethereum",
  "devdoc": {
    "kind": "dev",
    "methods": {},
    "version": 1
  },
  "userdoc": {
    "kind": "user",
    "methods": {},
    "version": 1
  }
}