{
  "contractName": "EventExam",
  "abi": [
    {
      "anonymous": false,
      "inputs": [
        {
          "indexed": false,
          "internalType": "string",
          "name": "name",
          "type": "string"
        },
        {
          "indexed": false,
          "internalType": "uint256",
          "name": "score",
          "type": "uint256"
        }
      ],
      "name": "exam",
      "type": "event"
    },
    {
      "inputs": [],
      "name": "updateScore",
      "outputs": [],
      "stateMutability": "nonpayable",
      "type": "function"
    }
  ],
  "bytecode": "0x608060405234801561001057600080fd5b50610154806100206000396000f3fe608060405234801561001057600080fd5b506004361061002b5760003560e01c80632d9e9c9c14610030575b600080fd5b61003861003a565b005b7f8eab1beaf79e90b6168fd6ac7852fcf5195d6d4701315cfc14432b793f8586ea606460405161006a91906100c3565b60405180910390a1565b61007d8161010c565b82525050565b60006100906007836100f1565b91507f43686172316579000000000000000000000000000000000000000000000000006000830152602082019050919050565b600060408201905081810360008301526100dc81610083565b90506100eb6020830184610074565b92915050565b600082825260208201905092915050565b6000819050919050565b600061011782610102565b905091905056fea2646970667358221220b345b09ea8a1e71bd52a99e123a18f9d9af1c1eefe78e284f48dc14b1928e67964736f6c63430008000033",
  "immutableReferences": {},
  "source": "// SPDX-License-Identifier: MIT\r\npragma solidity ^0.8.0;\r\n\r\ncontract EventExam {\r\n    event exam(string name, uint256 score);\r\n\r\n    function updateScore() public {\r\n        emit exam(\"Char1ey\", 100);\r\n    }\r\n}",
  "sourcePath": "/home/char1ey/workspace/Ethereum/syntax/contracts/13.sol",
  "compiler": {
    "name": "solc",
    "version": "0.8.0+commit.c7dfd78e.Emscripten.clang"
  },
  "schemaVersion": "3.4.14",
  "updatedAt": "2023-05-30T06:31:59.031Z",
  "networkType": "ethereum",
  "devdoc": {
    "kind": "dev",
    "methods": {},
    "version": 1
  },
  "userdoc": {
    "kind": "user",
    "methods": {},
    "version": 1
  }
}