{
  "contractName": "ExamScore",
  "abi": [
    {
      "anonymous": false,
      "inputs": [
        {
          "indexed": true,
          "internalType": "string",
          "name": "name",
          "type": "string"
        },
        {
          "indexed": false,
          "internalType": "uint256",
          "name": "score",
          "type": "uint256"
        }
      ],
      "name": "exam",
      "type": "event"
    },
    {
      "inputs": [
        {
          "internalType": "string",
          "name": "_name",
          "type": "string"
        },
        {
          "internalType": "uint256",
          "name": "_score",
          "type": "uint256"
        }
      ],
      "name": "updateScore",
      "outputs": [],
      "stateMutability": "nonpayable",
      "type": "function"
    }
  ],
  "bytecode": "0x608060405234801561001057600080fd5b5061031f806100206000396000f3fe608060405234801561001057600080fd5b506004361061002b5760003560e01c8063b5264efd14610030575b600080fd5b61004a6004803603810190610045919061011a565b61004c565b005b8160405161005a91906101ae565b60405180910390207f8eab1beaf79e90b6168fd6ac7852fcf5195d6d4701315cfc14432b793f8586ea8260405161009191906101c5565b60405180910390a25050565b60006100b06100ab84610211565b6101e0565b9050828152602081018484840111156100c857600080fd5b6100d3848285610261565b509392505050565b600082601f8301126100ec57600080fd5b81356100fc84826020860161009d565b91505092915050565b600081359050610114816102d2565b92915050565b6000806040838503121561012d57600080fd5b600083013567ffffffffffffffff81111561014757600080fd5b610153858286016100db565b925050602061016485828601610105565b9150509250929050565b600061017982610241565b610183818561024c565b9350610193818560208601610270565b80840191505092915050565b6101a881610257565b82525050565b60006101ba828461016e565b915081905092915050565b60006020820190506101da600083018461019f565b92915050565b6000604051905081810181811067ffffffffffffffff82111715610207576102066102a3565b5b8060405250919050565b600067ffffffffffffffff82111561022c5761022b6102a3565b5b601f19601f8301169050602081019050919050565b600081519050919050565b600081905092915050565b6000819050919050565b82818337600083830152505050565b60005b8381101561028e578082015181840152602081019050610273565b8381111561029d576000848401525b50505050565b7f4e487b7100000000000000000000000000000000000000000000000000000000600052604160045260246000fd5b6102db81610257565b81146102e657600080fd5b5056fea2646970667358221220e70c9677661797176e044e0b4a35b5ee6ecf57b1aa87519262ec78bc2416d6f964736f6c63430008000033",
  "immutableReferences": {},
  "source": "// SPDX-License-Identifier: MIT\r\npragma solidity ^0.8.0;\r\n\r\ncontract ExamScore {\r\n    event exam(string indexed name, uint256 score);\r\n\r\n    function updateScore(string memory _name, uint256 _score) public {\r\n        emit exam(_name, _score);\r\n    }\r\n}",
  "sourcePath": "/home/char1ey/workspace/Ethereum/syntax/contracts/14.sol",
  "compiler": {
    "name": "solc",
    "version": "0.8.0+commit.c7dfd78e.Emscripten.clang"
  },
  "schemaVersion": "3.4.14",
  "updatedAt": "2023-05-30T06:58:40.017Z",
  "networkType": "ethereum",
  "devdoc": {
    "kind": "dev",
    "methods": {},
    "version": 1
  },
  "userdoc": {
    "kind": "user",
    "methods": {},
    "version": 1
  }
}