{
  "contractName": "Exam_Func",
  "abi": [
    {
      "inputs": [],
      "name": "a",
      "outputs": [
        {
          "internalType": "uint256",
          "name": "",
          "type": "uint256"
        }
      ],
      "stateMutability": "view",
      "type": "function",
      "constant": true
    },
    {
      "inputs": [],
      "name": "changeA1",
      "outputs": [],
      "stateMutability": "nonpayable",
      "type": "function"
    },
    {
      "inputs": [
        {
          "internalType": "uint256",
          "name": "_value",
          "type": "uint256"
        }
      ],
      "name": "changeA2",
      "outputs": [],
      "stateMutability": "nonpayable",
      "type": "function"
    },
    {
      "inputs": [
        {
          "internalType": "uint256",
          "name": "_value",
          "type": "uint256"
        }
      ],
      "name": "changeA3",
      "outputs": [
        {
          "internalType": "uint256",
          "name": "",
          "type": "uint256"
        }
      ],
      "stateMutability": "nonpayable",
      "type": "function"
    }
  ],
  "bytecode": "0x6080604052600360005534801561001557600080fd5b506101b1806100256000396000f3fe608060405234801561001057600080fd5b506004361061004c5760003560e01c80630dbe671f146100515780631fd290601461006f5780632dfc423814610079578063910dbc9d146100a9575b600080fd5b6100596100c5565b604051610066919061013f565b60405180910390f35b6100776100cb565b005b610093600480360381019061008e9190610107565b6100d5565b6040516100a0919061013f565b60405180910390f35b6100c360048036038101906100be9190610107565b6100e8565b005b60005481565b6005600081905550565b6000816000819055506000549050919050565b8060008190555050565b60008135905061010181610164565b92915050565b60006020828403121561011957600080fd5b6000610127848285016100f2565b91505092915050565b6101398161015a565b82525050565b60006020820190506101546000830184610130565b92915050565b6000819050919050565b61016d8161015a565b811461017857600080fd5b5056fea26469706673582212204080cb7a391b83848eb0be6009b4ddad17aa6072120f5d84b799eef3f4eb356864736f6c63430008000033",
  "immutableReferences": {},
  "source": "// SPDX-License-Identifier: MIT\npragma solidity ^0.8.0;\n\ncontract Exam_Func {\n    uint256 public a = 3;\n\n    function changeA1() public {\n        a = 5;\n    }\n\n    function changeA2(uint256 _value) public {\n        a = _value;\n    }\n\n    function changeA3(uint256 _value) public returns(uint256) {\n        a = _value;\n        return a;\n    }\n}",
  "sourcePath": "/root/char1ey/workspace/Ethereum/Solidity/contracts/4.sol",
  "compiler": {
    "name": "solc",
    "version": "0.8.0+commit.c7dfd78e.Emscripten.clang"
  },
  "schemaVersion": "3.4.14",
  "updatedAt": "2023-05-28T20:13:40.575Z",
  "networkType": "ethereum",
  "devdoc": {
    "kind": "dev",
    "methods": {},
    "version": 1
  },
  "userdoc": {
    "kind": "user",
    "methods": {},
    "version": 1
  }
}