{
  "contractName": "Fish",
  "abi": [
    {
      "inputs": [],
      "name": "eatFish",
      "outputs": [
        {
          "internalType": "uint256",
          "name": "",
          "type": "uint256"
        }
      ],
      "stateMutability": "view",
      "type": "function"
    },
    {
      "inputs": [],
      "name": "swim",
      "outputs": [
        {
          "internalType": "bool",
          "name": "",
          "type": "bool"
        }
      ],
      "stateMutability": "view",
      "type": "function"
    },
    {
      "inputs": [],
      "name": "getFish",
      "outputs": [
        {
          "internalType": "bool",
          "name": "",
          "type": "bool"
        }
      ],
      "stateMutability": "view",
      "type": "function"
    },
    {
      "inputs": [],
      "name": "getEatFish",
      "outputs": [
        {
          "internalType": "uint256",
          "name": "",
          "type": "uint256"
        }
      ],
      "stateMutability": "view",
      "type": "function"
    }
  ],
  "bytecode": "0x608060405260016000806101000a81548160ff021916908315150217905550600560015534801561002f57600080fd5b5061019f8061003f6000396000f3fe608060405234801561001057600080fd5b506004361061004b5760003560e01c80626228dc1461005057806347c824441461006e578063e4d964b91461008c578063fee7ae6c146100aa575b600080fd5b6100586100c8565b6040516100659190610138565b60405180910390f35b6100766100ce565b604051610083919061011d565b60405180910390f35b6100946100df565b6040516100a19190610138565b60405180910390f35b6100b26100e9565b6040516100bf919061011d565b60405180910390f35b60015481565b60008054906101000a900460ff1681565b6000600154905090565b60008060009054906101000a900460ff16905090565b61010881610153565b82525050565b6101178161015f565b82525050565b600060208201905061013260008301846100ff565b92915050565b600060208201905061014d600083018461010e565b92915050565b60008115159050919050565b600081905091905056fea26469706673582212203038ac90ff30631a91b941e1cac93bd7ac0c5c64a138108f17891992196870c664736f6c63430008000033",
  "immutableReferences": {},
  "source": "// SPDX-License-Identifier: MIT\r\npragma solidity ^0.8.0;\r\n\r\ncontract Bird {\r\n    uint256 public wings = 2;\r\n    uint256 public eatBird = 10;\r\n\r\n    function getBird() public view returns (uint256) {\r\n        return wings;\r\n    }\r\n\r\n    function getEatFish() public view virtual returns (uint256) {\r\n        return eatBird;\r\n    }\r\n}\r\n\r\ncontract Fish {\r\n    bool public swim = true;\r\n    uint256 public eatFish = 5;\r\n\r\n    function getFish() public view returns (bool) {\r\n        return swim;\r\n    }\r\n\r\n    function getEatFish() public view virtual returns (uint256) {\r\n        return eatFish;\r\n    }\r\n}\r\n\r\ncontract Penguin is Bird, Fish {\r\n    function getEatFish() public view override(Bird, Fish) returns (uint256) {\r\n        return eatBird + eatFish;\r\n    }\r\n}\r\n",
  "sourcePath": "/home/char1ey/workspace/Ethereum/syntax/contracts/12.sol",
  "compiler": {
    "name": "solc",
    "version": "0.8.0+commit.c7dfd78e.Emscripten.clang"
  },
  "schemaVersion": "3.4.14",
  "updatedAt": "2023-05-30T05:42:08.898Z",
  "devdoc": {
    "kind": "dev",
    "methods": {},
    "version": 1
  },
  "userdoc": {
    "kind": "user",
    "methods": {},
    "version": 1
  }
}