{
  "contractName": "HowIsItSaved",
  "abi": [
    {
      "inputs": [
        {
          "internalType": "string",
          "name": "_str",
          "type": "string"
        }
      ],
      "name": "savedStr",
      "outputs": [
        {
          "internalType": "string",
          "name": "",
          "type": "string"
        }
      ],
      "stateMutability": "pure",
      "type": "function"
    },
    {
      "inputs": [
        {
          "internalType": "uint256",
          "name": "_uint",
          "type": "uint256"
        }
      ],
      "name": "savedUint",
      "outputs": [
        {
          "internalType": "uint256",
          "name": "",
          "type": "uint256"
        }
      ],
      "stateMutability": "pure",
      "type": "function"
    }
  ],
  "bytecode": "0x60806040526040518060400160405280600781526020017f43686172316579000000000000000000000000000000000000000000000000008152506000908051906020019061004f929190610062565b5034801561005c57600080fd5b50610166565b82805461006e90610105565b90600052602060002090601f01602090048101928261009057600085556100d7565b82601f106100a957805160ff19168380011785556100d7565b828001600101855582156100d7579182015b828111156100d65782518255916020019190600101906100bb565b5b5090506100e491906100e8565b5090565b5b808211156101015760008160009055506001016100e9565b5090565b6000600282049050600182168061011d57607f821691505b6020821081141561013157610130610137565b5b50919050565b7f4e487b7100000000000000000000000000000000000000000000000000000000600052602260045260246000fd5b610371806101756000396000f3fe608060405234801561001057600080fd5b50600436106100365760003560e01c80631f251fe81461003b5780635eed40eb1461006b575b600080fd5b6100556004803603810190610050919061012c565b61009b565b60405161006291906101de565b60405180910390f35b6100856004803603810190610080919061016d565b6100a5565b6040516100929190610200565b60405180910390f35b6060819050919050565b6000819050919050565b60006100c26100bd8461024c565b61021b565b9050828152602081018484840111156100da57600080fd5b6100e58482856102a2565b509392505050565b600082601f8301126100fe57600080fd5b813561010e8482602086016100af565b91505092915050565b60008135905061012681610324565b92915050565b60006020828403121561013e57600080fd5b600082013567ffffffffffffffff81111561015857600080fd5b610164848285016100ed565b91505092915050565b60006020828403121561017f57600080fd5b600061018d84828501610117565b91505092915050565b60006101a18261027c565b6101ab8185610287565b93506101bb8185602086016102b1565b6101c481610313565b840191505092915050565b6101d881610298565b82525050565b600060208201905081810360008301526101f88184610196565b905092915050565b600060208201905061021560008301846101cf565b92915050565b6000604051905081810181811067ffffffffffffffff82111715610242576102416102e4565b5b8060405250919050565b600067ffffffffffffffff821115610267576102666102e4565b5b601f19601f8301169050602081019050919050565b600081519050919050565b600082825260208201905092915050565b6000819050919050565b82818337600083830152505050565b60005b838110156102cf5780820151818401526020810190506102b4565b838111156102de576000848401525b50505050565b7f4e487b7100000000000000000000000000000000000000000000000000000000600052604160045260246000fd5b6000601f19601f8301169050919050565b61032d81610298565b811461033857600080fd5b5056fea2646970667358221220f96f723fa7bcc0b0164f8788ce0a83098dd88c2cf9eec0d6b2b66c3208b23c4264736f6c63430008000033",
  "immutableReferences": {},
  "source": "// SPDX-License-Identifier: MIT\r\npragma solidity ^0.8.0;\r\n\r\ncontract HowIsItSaved {\r\n    string name = \"Char1ey\";\r\n\r\n    function savedStr(string memory _str) public pure returns(string memory){\r\n        return _str;\r\n    }\r\n\r\n    function savedUint(uint256 _uint) public pure returns(uint256){\r\n    return _uint;\r\n    }\r\n}\r\n",
  "sourcePath": "/home/char1ey/workspace/Ethereum/syntax/contracts/7.sol",
  "compiler": {
    "name": "solc",
    "version": "0.8.0+commit.c7dfd78e.Emscripten.clang"
  },
  "schemaVersion": "3.4.14",
  "updatedAt": "2023-05-30T05:42:08.916Z",
  "devdoc": {
    "kind": "dev",
    "methods": {},
    "version": 1
  },
  "userdoc": {
    "kind": "user",
    "methods": {},
    "version": 1
  }
}