{
  "contractName": "InstanceE",
  "abi": [
    {
      "inputs": [],
      "name": "get",
      "outputs": [
        {
          "internalType": "string",
          "name": "",
          "type": "string"
        },
        {
          "internalType": "uint256",
          "name": "",
          "type": "uint256"
        }
      ],
      "stateMutability": "view",
      "type": "function",
      "constant": true
    },
    {
      "inputs": [
        {
          "internalType": "string",
          "name": "_name",
          "type": "string"
        },
        {
          "internalType": "uint256",
          "name": "_age",
          "type": "uint256"
        }
      ],
      "name": "change",
      "outputs": [],
      "stateMutability": "nonpayable",
      "type": "function"
    }
  ],
  "bytecode": "0x6080604052601d6040516100129061008a565b61001c91906100e6565b604051809103906000f080158015610038573d6000803e3d6000fd5b506000806101000a81548173ffffffffffffffffffffffffffffffffffffffff021916908373ffffffffffffffffffffffffffffffffffffffff16021790555034801561008457600080fd5b50610141565b61085b8061072b83390190565b6100a08161012f565b82525050565b60006100b3600783610114565b91507f43686172316579000000000000000000000000000000000000000000000000006000830152602082019050919050565b600060408201905081810360008301526100ff816100a6565b905061010e6020830184610097565b92915050565b600082825260208201905092915050565b6000819050919050565b600061013a82610125565b9050919050565b6105db806101506000396000f3fe608060405234801561001057600080fd5b50600436106100365760003560e01c80636d4ce63c1461003b5780636d806b1e1461005a575b600080fd5b610043610076565b604051610051929190610455565b60405180910390f35b610074600480360381019061006f9190610390565b6101c4565b005b606060008060009054906101000a900473ffffffffffffffffffffffffffffffffffffffff1673ffffffffffffffffffffffffffffffffffffffff166306fdde036040518163ffffffff1660e01b815260040160006040518083038186803b1580156100e157600080fd5b505afa1580156100f5573d6000803e3d6000fd5b505050506040513d6000823e3d601f19601f8201168201806040525081019061011e919061034f565b60008054906101000a900473ffffffffffffffffffffffffffffffffffffffff1673ffffffffffffffffffffffffffffffffffffffff1663262a9dff6040518163ffffffff1660e01b815260040160206040518083038186803b15801561018457600080fd5b505afa158015610198573d6000803e3d6000fd5b505050506040513d601f19601f820116820180604052508101906101bc91906103e4565b915091509091565b60008054906101000a900473ffffffffffffffffffffffffffffffffffffffff1673ffffffffffffffffffffffffffffffffffffffff16636d806b1e83836040518363ffffffff1660e01b815260040161021f929190610455565b600060405180830381600087803b15801561023957600080fd5b505af115801561024d573d6000803e3d6000fd5b505050505050565b6000610268610263846104b6565b610485565b90508281526020810184848401111561028057600080fd5b61028b84828561050c565b509392505050565b60006102a66102a1846104b6565b610485565b9050828152602081018484840111156102be57600080fd5b6102c984828561051b565b509392505050565b600082601f8301126102e257600080fd5b81356102f2848260208601610255565b91505092915050565b600082601f83011261030c57600080fd5b815161031c848260208601610293565b91505092915050565b6000813590506103348161058e565b92915050565b6000815190506103498161058e565b92915050565b60006020828403121561036157600080fd5b600082015167ffffffffffffffff81111561037b57600080fd5b610387848285016102fb565b91505092915050565b600080604083850312156103a357600080fd5b600083013567ffffffffffffffff8111156103bd57600080fd5b6103c9858286016102d1565b92505060206103da85828601610325565b9150509250929050565b6000602082840312156103f657600080fd5b60006104048482850161033a565b91505092915050565b6000610418826104e6565b61042281856104f1565b935061043281856020860161051b565b61043b8161057d565b840191505092915050565b61044f81610502565b82525050565b6000604082019050818103600083015261046f818561040d565b905061047e6020830184610446565b9392505050565b6000604051905081810181811067ffffffffffffffff821117156104ac576104ab61054e565b5b8060405250919050565b600067ffffffffffffffff8211156104d1576104d061054e565b5b601f19601f8301169050602081019050919050565b600081519050919050565b600082825260208201905092915050565b6000819050919050565b82818337600083830152505050565b60005b8381101561053957808201518184015260208101905061051e565b83811115610548576000848401525b50505050565b7f4e487b7100000000000000000000000000000000000000000000000000000000600052604160045260246000fd5b6000601f19601f8301169050919050565b61059781610502565b81146105a257600080fd5b5056fea26469706673582212200989040aae3325a81b3a7cdbffbd7ef84bd0f95ecb3f1e8770e3d0e74ebfa4c564736f6c6343000800003360806040523480156200001157600080fd5b506040516200085b3803806200085b833981810160405281019062000037919062000198565b81600090805190602001906200004f9291906200005f565b5080600181905550505062000347565b8280546200006d9062000299565b90600052602060002090601f016020900481019282620000915760008555620000dd565b82601f10620000ac57805160ff1916838001178555620000dd565b82800160010185558215620000dd579182015b82811115620000dc578251825591602001919060010190620000bf565b5b509050620000ec9190620000f0565b5090565b5b808211156200010b576000816000905550600101620000f1565b5090565b600062000126620001208462000226565b620001f2565b9050828152602081018484840111156200013f57600080fd5b6200014c84828562000263565b509392505050565b600082601f8301126200016657600080fd5b8151620001788482602086016200010f565b91505092915050565b60008151905062000192816200032d565b92915050565b60008060408385031215620001ac57600080fd5b600083015167ffffffffffffffff811115620001c757600080fd5b620001d58582860162000154565b9250506020620001e88582860162000181565b9150509250929050565b6000604051905081810181811067ffffffffffffffff821117156200021c576200021b620002fe565b5b8060405250919050565b600067ffffffffffffffff821115620002445762000243620002fe565b5b601f19601f8301169050602081019050919050565b6000819050919050565b60005b838110156200028357808201518184015260208101905062000266565b8381111562000293576000848401525b50505050565b60006002820490506001821680620002b257607f821691505b60208210811415620002c957620002c8620002cf565b5b50919050565b7f4e487b7100000000000000000000000000000000000000000000000000000000600052602260045260246000fd5b7f4e487b7100000000000000000000000000000000000000000000000000000000600052604160045260246000fd5b620003388162000259565b81146200034457600080fd5b50565b61050480620003576000396000f3fe608060405234801561001057600080fd5b50600436106100415760003560e01c806306fdde0314610046578063262a9dff146100645780636d806b1e14610082575b600080fd5b61004e61009e565b60405161005b9190610310565b60405180910390f35b61006c61012c565b6040516100799190610332565b60405180910390f35b61009c60048036038101906100979190610274565b610132565b005b600080546100ab90610416565b80601f01602080910402602001604051908101604052809291908181526020018280546100d790610416565b80156101245780601f106100f957610100808354040283529160200191610124565b820191906000526020600020905b81548152906001019060200180831161010757829003601f168201915b505050505081565b60015481565b8160009080519060200190610148929190610154565b50806001819055505050565b82805461016090610416565b90600052602060002090601f01602090048101928261018257600085556101c9565b82601f1061019b57805160ff19168380011785556101c9565b828001600101855582156101c9579182015b828111156101c85782518255916020019190600101906101ad565b5b5090506101d691906101da565b5090565b5b808211156101f35760008160009055506001016101db565b5090565b600061020a6102058461037e565b61034d565b90508281526020810184848401111561022257600080fd5b61022d8482856103d4565b509392505050565b600082601f83011261024657600080fd5b81356102568482602086016101f7565b91505092915050565b60008135905061026e816104b7565b92915050565b6000806040838503121561028757600080fd5b600083013567ffffffffffffffff8111156102a157600080fd5b6102ad85828601610235565b92505060206102be8582860161025f565b9150509250929050565b60006102d3826103ae565b6102dd81856103b9565b93506102ed8185602086016103e3565b6102f6816104a6565b840191505092915050565b61030a816103ca565b82525050565b6000602082019050818103600083015261032a81846102c8565b905092915050565b60006020820190506103476000830184610301565b92915050565b6000604051905081810181811067ffffffffffffffff8211171561037457610373610477565b5b8060405250919050565b600067ffffffffffffffff82111561039957610398610477565b5b601f19601f8301169050602081019050919050565b600081519050919050565b600082825260208201905092915050565b6000819050919050565b82818337600083830152505050565b60005b838110156104015780820151818401526020810190506103e6565b83811115610410576000848401525b50505050565b6000600282049050600182168061042e57607f821691505b6020821081141561044257610441610448565b5b50919050565b7f4e487b7100000000000000000000000000000000000000000000000000000000600052602260045260246000fd5b7f4e487b7100000000000000000000000000000000000000000000000000000000600052604160045260246000fd5b6000601f19601f8301169050919050565b6104c0816103ca565b81146104cb57600080fd5b5056fea264697066735822122090c70f0cf90448b2f2f7ae28cc59ef2e68d275a9bd7cabe262d53c2e1cf385f464736f6c63430008000033",
  "immutableReferences": {},
  "source": "// SPDX-License-Identifier: MIT\r\npragma solidity ^0.8.0;\r\n\r\ncontract InstanceD {\r\n    string public name;\r\n    uint256 public age;\r\n\r\n    constructor(string memory _name, uint256 _age) {\r\n        name = _name;\r\n        age = _age;\r\n    }\r\n\r\n    function change(string memory _name, uint256 _age) public {\r\n        name = _name;\r\n        age = _age;\r\n    }\r\n}\r\n\r\ncontract InstanceE {\r\n    InstanceD instance = new InstanceD(\"Char1ey\", 29);\r\n\r\n    function get() public view returns (string memory, uint256) {\r\n        return (instance.name(), instance.age());\r\n    }\r\n\r\n    function change(string memory _name, uint256 _age) public {\r\n        instance.change(_name, _age);\r\n    }\r\n}\r\n",
  "sourcePath": "/home/char1ey/workspace/Ethereum/syntax/contracts/9.sol",
  "compiler": {
    "name": "solc",
    "version": "0.8.0+commit.c7dfd78e.Emscripten.clang"
  },
  "schemaVersion": "3.4.14",
  "updatedAt": "2023-05-29T10:06:05.579Z",
  "networkType": "ethereum",
  "devdoc": {
    "kind": "dev",
    "methods": {},
    "version": 1
  },
  "userdoc": {
    "kind": "user",
    "methods": {},
    "version": 1
  }
}