{
  "contractName": "InstanceA",
  "abi": [
    {
      "inputs": [],
      "name": "num",
      "outputs": [
        {
          "internalType": "uint256",
          "name": "",
          "type": "uint256"
        }
      ],
      "stateMutability": "view",
      "type": "function",
      "constant": true
    },
    {
      "inputs": [
        {
          "internalType": "uint256",
          "name": "_value",
          "type": "uint256"
        }
      ],
      "name": "change",
      "outputs": [],
      "stateMutability": "nonpayable",
      "type": "function"
    }
  ],
  "bytecode": "0x6080604052601d60005534801561001557600080fd5b5061012c806100256000396000f3fe6080604052348015600f57600080fd5b506004361060325760003560e01c80634e70b1dc14603757806375322e47146051575b600080fd5b603d6069565b6040516048919060bf565b60405180910390f35b6067600480360381019060639190608c565b606f565b005b60005481565b8060008190555050565b60008135905060868160e2565b92915050565b600060208284031215609d57600080fd5b600060a9848285016079565b91505092915050565b60b98160d8565b82525050565b600060208201905060d2600083018460b2565b92915050565b6000819050919050565b60e98160d8565b811460f357600080fd5b5056fea26469706673582212209b405d934d59e1878e1b27e0d5a177a91d991b21613295f06f60f0cfa31d1c4e64736f6c63430008000033",
  "immutableReferences": {},
  "source": "// SPDX-License-Identifier: MIT\r\npragma solidity ^0.8.0;\r\n\r\ncontract InstanceA {\r\n    uint256 public num = 29;\r\n\r\n    function change(uint256 _value) public {\r\n        num = _value;\r\n    }\r\n}\r\n\r\ncontract InstanceB {\r\n    InstanceA instance = new InstanceA();\r\n\r\n    function getNum() public view returns (uint256) {\r\n        return instance.num();\r\n    }\r\n\r\n    function changeNum(uint256 _value) public {\r\n        instance.change(_value);\r\n    }\r\n}\r\n\r\ncontract InstanceC {\r\n    InstanceA instance = new InstanceA();\r\n\r\n    function getNum() public view returns (uint256) {\r\n        return instance.num();\r\n    }\r\n\r\n    function changeNum(uint256 _value) public {\r\n        instance.change(_value);\r\n    }\r\n}\r\n",
  "sourcePath": "/home/char1ey/workspace/Ethereum/syntax/contracts/8.sol",
  "compiler": {
    "name": "solc",
    "version": "0.8.0+commit.c7dfd78e.Emscripten.clang"
  },
  "schemaVersion": "3.4.14",
  "updatedAt": "2023-05-29T09:17:10.192Z",
  "networkType": "ethereum",
  "devdoc": {
    "kind": "dev",
    "methods": {},
    "version": 1
  },
  "userdoc": {
    "kind": "user",
    "methods": {},
    "version": 1
  }
}