{
  "contractName": "InstanceD",
  "abi": [
    {
      "inputs": [
        {
          "internalType": "string",
          "name": "_name",
          "type": "string"
        },
        {
          "internalType": "uint256",
          "name": "_age",
          "type": "uint256"
        }
      ],
      "stateMutability": "nonpayable",
      "type": "constructor"
    },
    {
      "inputs": [],
      "name": "age",
      "outputs": [
        {
          "internalType": "uint256",
          "name": "",
          "type": "uint256"
        }
      ],
      "stateMutability": "view",
      "type": "function",
      "constant": true
    },
    {
      "inputs": [],
      "name": "name",
      "outputs": [
        {
          "internalType": "string",
          "name": "",
          "type": "string"
        }
      ],
      "stateMutability": "view",
      "type": "function",
      "constant": true
    },
    {
      "inputs": [
        {
          "internalType": "string",
          "name": "_name",
          "type": "string"
        },
        {
          "internalType": "uint256",
          "name": "_age",
          "type": "uint256"
        }
      ],
      "name": "change",
      "outputs": [],
      "stateMutability": "nonpayable",
      "type": "function"
    }
  ],
  "bytecode": "0x60806040523480156200001157600080fd5b506040516200085b3803806200085b833981810160405281019062000037919062000198565b81600090805190602001906200004f9291906200005f565b5080600181905550505062000347565b8280546200006d9062000299565b90600052602060002090601f016020900481019282620000915760008555620000dd565b82601f10620000ac57805160ff1916838001178555620000dd565b82800160010185558215620000dd579182015b82811115620000dc578251825591602001919060010190620000bf565b5b509050620000ec9190620000f0565b5090565b5b808211156200010b576000816000905550600101620000f1565b5090565b600062000126620001208462000226565b620001f2565b9050828152602081018484840111156200013f57600080fd5b6200014c84828562000263565b509392505050565b600082601f8301126200016657600080fd5b8151620001788482602086016200010f565b91505092915050565b60008151905062000192816200032d565b92915050565b60008060408385031215620001ac57600080fd5b600083015167ffffffffffffffff811115620001c757600080fd5b620001d58582860162000154565b9250506020620001e88582860162000181565b9150509250929050565b6000604051905081810181811067ffffffffffffffff821117156200021c576200021b620002fe565b5b8060405250919050565b600067ffffffffffffffff821115620002445762000243620002fe565b5b601f19601f8301169050602081019050919050565b6000819050919050565b60005b838110156200028357808201518184015260208101905062000266565b8381111562000293576000848401525b50505050565b60006002820490506001821680620002b257607f821691505b60208210811415620002c957620002c8620002cf565b5b50919050565b7f4e487b7100000000000000000000000000000000000000000000000000000000600052602260045260246000fd5b7f4e487b7100000000000000000000000000000000000000000000000000000000600052604160045260246000fd5b620003388162000259565b81146200034457600080fd5b50565b61050480620003576000396000f3fe608060405234801561001057600080fd5b50600436106100415760003560e01c806306fdde0314610046578063262a9dff146100645780636d806b1e14610082575b600080fd5b61004e61009e565b60405161005b9190610310565b60405180910390f35b61006c61012c565b6040516100799190610332565b60405180910390f35b61009c60048036038101906100979190610274565b610132565b005b600080546100ab90610416565b80601f01602080910402602001604051908101604052809291908181526020018280546100d790610416565b80156101245780601f106100f957610100808354040283529160200191610124565b820191906000526020600020905b81548152906001019060200180831161010757829003601f168201915b505050505081565b60015481565b8160009080519060200190610148929190610154565b50806001819055505050565b82805461016090610416565b90600052602060002090601f01602090048101928261018257600085556101c9565b82601f1061019b57805160ff19168380011785556101c9565b828001600101855582156101c9579182015b828111156101c85782518255916020019190600101906101ad565b5b5090506101d691906101da565b5090565b5b808211156101f35760008160009055506001016101db565b5090565b600061020a6102058461037e565b61034d565b90508281526020810184848401111561022257600080fd5b61022d8482856103d4565b509392505050565b600082601f83011261024657600080fd5b81356102568482602086016101f7565b91505092915050565b60008135905061026e816104b7565b92915050565b6000806040838503121561028757600080fd5b600083013567ffffffffffffffff8111156102a157600080fd5b6102ad85828601610235565b92505060206102be8582860161025f565b9150509250929050565b60006102d3826103ae565b6102dd81856103b9565b93506102ed8185602086016103e3565b6102f6816104a6565b840191505092915050565b61030a816103ca565b82525050565b6000602082019050818103600083015261032a81846102c8565b905092915050565b60006020820190506103476000830184610301565b92915050565b6000604051905081810181811067ffffffffffffffff8211171561037457610373610477565b5b8060405250919050565b600067ffffffffffffffff82111561039957610398610477565b5b601f19601f8301169050602081019050919050565b600081519050919050565b600082825260208201905092915050565b6000819050919050565b82818337600083830152505050565b60005b838110156104015780820151818401526020810190506103e6565b83811115610410576000848401525b50505050565b6000600282049050600182168061042e57607f821691505b6020821081141561044257610441610448565b5b50919050565b7f4e487b7100000000000000000000000000000000000000000000000000000000600052602260045260246000fd5b7f4e487b7100000000000000000000000000000000000000000000000000000000600052604160045260246000fd5b6000601f19601f8301169050919050565b6104c0816103ca565b81146104cb57600080fd5b5056fea2646970667358221220c01ad6ca6063bd365205e4408a06146101bef06f08fe5130266793ccb097606564736f6c63430008000033",
  "immutableReferences": {},
  "source": "// SPDX-License-Identifier: MIT\npragma solidity ^0.8.0;\n\ncontract InstanceD {\n    string public name;\n    uint256 public age;\n\n    constructor(string memory _name, uint256 _age) {\n        name = _name;\n        age = _age;\n    }\n\n    function change(string memory _name, uint256 _age) public {\n        name = _name;\n        age = _age;\n    }\n}\n\ncontract InstanceE {\n    InstanceD instance = new InstanceD(\"Char1ey\", 29);\n\n    function get() public view returns (string memory, uint256) {\n        return (instance.name(), instance.age());\n    }\n\n    function change(string memory _name, uint256 _age) public {\n        instance.change(_name, _age);\n    }\n}\n",
  "sourcePath": "/root/char1ey/workspace/Ethereum/Solidity/contracts/9.sol",
  "compiler": {
    "name": "solc",
    "version": "0.8.0+commit.c7dfd78e.Emscripten.clang"
  },
  "schemaVersion": "3.4.14",
  "updatedAt": "2023-05-29T16:06:19.304Z",
  "networkType": "ethereum",
  "devdoc": {
    "kind": "dev",
    "methods": {},
    "version": 1
  },
  "userdoc": {
    "kind": "user",
    "methods": {},
    "version": 1
  }
}