{
  "contractName": "InstanceA",
  "abi": [
    {
      "inputs": [],
      "name": "num",
      "outputs": [
        {
          "internalType": "uint256",
          "name": "",
          "type": "uint256"
        }
      ],
      "stateMutability": "view",
      "type": "function"
    },
    {
      "inputs": [
        {
          "internalType": "uint256",
          "name": "_value",
          "type": "uint256"
        }
      ],
      "name": "change",
      "outputs": [],
      "stateMutability": "nonpayable",
      "type": "function"
    }
  ],
  "bytecode": "0x6080604052601d60005534801561001557600080fd5b5061012c806100256000396000f3fe6080604052348015600f57600080fd5b506004361060325760003560e01c80634e70b1dc14603757806375322e47146051575b600080fd5b603d6069565b6040516048919060bf565b60405180910390f35b6067600480360381019060639190608c565b606f565b005b60005481565b8060008190555050565b60008135905060868160e2565b92915050565b600060208284031215609d57600080fd5b600060a9848285016079565b91505092915050565b60b98160d8565b82525050565b600060208201905060d2600083018460b2565b92915050565b6000819050919050565b60e98160d8565b811460f357600080fd5b5056fea2646970667358221220901c542cb7af06fc24887e220b189a89c18327877e7b494794afa340486013b964736f6c63430008000033",
  "immutableReferences": {},
  "source": "// SPDX-License-Identifier: MIT\npragma solidity ^0.8.0;\n\ncontract InstanceA {\n    uint256 public num = 29;\n\n    function change(uint256 _value) public {\n        num = _value;\n    }\n}\n\ncontract InstanceB {\n    InstanceA instance = new InstanceA();\n\n    function getNum() public view returns (uint256) {\n        return instance.num();\n    }\n\n    function changeNum(uint256 _value) public {\n        instance.change(_value);\n    }\n}\n\ncontract InstanceC {\n    InstanceA instance = new InstanceA();\n\n    function getNum() public view returns (uint256) {\n        return instance.num();\n    }\n\n    function changeNum(uint256 _value) public {\n        instance.change(_value);\n    }\n}\n",
  "sourcePath": "/root/char1ey/workspace/Ethereum/Solidity/contracts/8.sol",
  "compiler": {
    "name": "solc",
    "version": "0.8.0+commit.c7dfd78e.Emscripten.clang"
  },
  "schemaVersion": "3.4.14",
  "updatedAt": "2023-05-29T16:06:17.117Z",
  "devdoc": {
    "kind": "dev",
    "methods": {},
    "version": 1
  },
  "userdoc": {
    "kind": "user",
    "methods": {},
    "version": 1
  }
}