{
  "contractName": "InstanceB",
  "abi": [
    {
      "inputs": [],
      "name": "getNum",
      "outputs": [
        {
          "internalType": "uint256",
          "name": "",
          "type": "uint256"
        }
      ],
      "stateMutability": "view",
      "type": "function"
    },
    {
      "inputs": [
        {
          "internalType": "uint256",
          "name": "_value",
          "type": "uint256"
        }
      ],
      "name": "changeNum",
      "outputs": [],
      "stateMutability": "nonpayable",
      "type": "function"
    }
  ],
  "bytecode": "0x60806040526040516100109061007e565b604051809103906000f08015801561002c573d6000803e3d6000fd5b506000806101000a81548173ffffffffffffffffffffffffffffffffffffffff021916908373ffffffffffffffffffffffffffffffffffffffff16021790555034801561007857600080fd5b5061008b565b6101518061034083390190565b6102a68061009a6000396000f3fe608060405234801561001057600080fd5b50600436106100365760003560e01c80632b3113371461003b57806367e0badb14610057575b600080fd5b610055600480360381019061005091906101d3565b610075565b005b61005f610103565b60405161006c9190610234565b60405180910390f35b60008054906101000a900473ffffffffffffffffffffffffffffffffffffffff1673ffffffffffffffffffffffffffffffffffffffff166375322e47826040518263ffffffff1660e01b81526004016100ce9190610234565b600060405180830381600087803b1580156100e857600080fd5b505af11580156100fc573d6000803e3d6000fd5b5050505050565b60008060009054906101000a900473ffffffffffffffffffffffffffffffffffffffff1673ffffffffffffffffffffffffffffffffffffffff16634e70b1dc6040518163ffffffff1660e01b815260040160206040518083038186803b15801561016c57600080fd5b505afa158015610180573d6000803e3d6000fd5b505050506040513d601f19601f820116820180604052508101906101a491906101fc565b905090565b6000813590506101b881610259565b92915050565b6000815190506101cd81610259565b92915050565b6000602082840312156101e557600080fd5b60006101f3848285016101a9565b91505092915050565b60006020828403121561020e57600080fd5b600061021c848285016101be565b91505092915050565b61022e8161024f565b82525050565b60006020820190506102496000830184610225565b92915050565b6000819050919050565b6102628161024f565b811461026d57600080fd5b5056fea264697066735822122048086fd93cda413b9ac243264dfa43d1a7739e6c46f8e7045d11247e06ab3bf564736f6c634300080000336080604052601d60005534801561001557600080fd5b5061012c806100256000396000f3fe6080604052348015600f57600080fd5b506004361060325760003560e01c80634e70b1dc14603757806375322e47146051575b600080fd5b603d6069565b6040516048919060bf565b60405180910390f35b6067600480360381019060639190608c565b606f565b005b60005481565b8060008190555050565b60008135905060868160e2565b92915050565b600060208284031215609d57600080fd5b600060a9848285016079565b91505092915050565b60b98160d8565b82525050565b600060208201905060d2600083018460b2565b92915050565b6000819050919050565b60e98160d8565b811460f357600080fd5b5056fea26469706673582212209b405d934d59e1878e1b27e0d5a177a91d991b21613295f06f60f0cfa31d1c4e64736f6c63430008000033",
  "immutableReferences": {},
  "source": "// SPDX-License-Identifier: MIT\r\npragma solidity ^0.8.0;\r\n\r\ncontract InstanceA {\r\n    uint256 public num = 29;\r\n\r\n    function change(uint256 _value) public {\r\n        num = _value;\r\n    }\r\n}\r\n\r\ncontract InstanceB {\r\n    InstanceA instance = new InstanceA();\r\n\r\n    function getNum() public view returns (uint256) {\r\n        return instance.num();\r\n    }\r\n\r\n    function changeNum(uint256 _value) public {\r\n        instance.change(_value);\r\n    }\r\n}\r\n\r\ncontract InstanceC {\r\n    InstanceA instance = new InstanceA();\r\n\r\n    function getNum() public view returns (uint256) {\r\n        return instance.num();\r\n    }\r\n\r\n    function changeNum(uint256 _value) public {\r\n        instance.change(_value);\r\n    }\r\n}\r\n",
  "sourcePath": "/home/char1ey/workspace/Ethereum/syntax/contracts/8.sol",
  "compiler": {
    "name": "solc",
    "version": "0.8.0+commit.c7dfd78e.Emscripten.clang"
  },
  "schemaVersion": "3.4.14",
  "updatedAt": "2023-05-30T05:42:08.920Z",
  "devdoc": {
    "kind": "dev",
    "methods": {},
    "version": 1
  },
  "userdoc": {
    "kind": "user",
    "methods": {},
    "version": 1
  }
}