{
  "contractName": "Son",
  "abi": [
    {
      "inputs": [],
      "name": "firstName",
      "outputs": [
        {
          "internalType": "string",
          "name": "",
          "type": "string"
        }
      ],
      "stateMutability": "view",
      "type": "function"
    },
    {
      "inputs": [],
      "name": "getFirstName",
      "outputs": [
        {
          "internalType": "string",
          "name": "",
          "type": "string"
        }
      ],
      "stateMutability": "view",
      "type": "function"
    },
    {
      "inputs": [],
      "name": "getLastName",
      "outputs": [
        {
          "internalType": "string",
          "name": "",
          "type": "string"
        }
      ],
      "stateMutability": "view",
      "type": "function"
    },
    {
      "inputs": [],
      "name": "getMoney",
      "outputs": [
        {
          "internalType": "uint256",
          "name": "",
          "type": "uint256"
        }
      ],
      "stateMutability": "view",
      "type": "function"
    },
    {
      "inputs": [],
      "name": "lastName",
      "outputs": [
        {
          "internalType": "string",
          "name": "",
          "type": "string"
        }
      ],
      "stateMutability": "view",
      "type": "function"
    },
    {
      "inputs": [],
      "name": "money",
      "outputs": [
        {
          "internalType": "uint256",
          "name": "",
          "type": "uint256"
        }
      ],
      "stateMutability": "view",
      "type": "function"
    }
  ],
  "bytecode": "0x60806040526040518060400160405280600481526020017f4b616e67000000000000000000000000000000000000000000000000000000008152506000908051906020019061004f929190610101565b506040518060400160405280600781526020017f43686172316579000000000000000000000000000000000000000000000000008152506001908051906020019061009b929190610101565b5060646002553480156100ad57600080fd5b506040518060400160405280600581526020017f537465766500000000000000000000000000000000000000000000000000000081525080600190805190602001906100fa929190610101565b5050610205565b82805461010d906101a4565b90600052602060002090601f01602090048101928261012f5760008555610176565b82601f1061014857805160ff1916838001178555610176565b82800160010185558215610176579182015b8281111561017557825182559160200191906001019061015a565b5b5090506101839190610187565b5090565b5b808211156101a0576000816000905550600101610188565b5090565b600060028204905060018216806101bc57607f821691505b602082108114156101d0576101cf6101d6565b5b50919050565b7f4e487b7100000000000000000000000000000000000000000000000000000000600052602260045260246000fd5b6104f1806102146000396000f3fe608060405234801561001057600080fd5b50600436106100625760003560e01c80634589fe0c146100675780634ddd108a146100855780636b109282146100a3578063932997f1146100c157806398e1b410146100df5780639ab03dcb146100fd575b600080fd5b61006f61011b565b60405161007c91906103b3565b60405180910390f35b61008d6101a9565b60405161009a91906103d5565b60405180910390f35b6100ab6101af565b6040516100b891906103b3565b60405180910390f35b6100c9610241565b6040516100d691906103b3565b60405180910390f35b6100e76102d3565b6040516100f491906103d5565b60405180910390f35b6101056102dd565b60405161011291906103b3565b60405180910390f35b6001805461012890610449565b80601f016020809104026020016040519081016040528092919081815260200182805461015490610449565b80156101a15780601f10610176576101008083540402835291602001916101a1565b820191906000526020600020905b81548152906001019060200180831161018457829003601f168201915b505050505081565b60025481565b6060600080546101be90610449565b80601f01602080910402602001604051908101604052809291908181526020018280546101ea90610449565b80156102375780601f1061020c57610100808354040283529160200191610237565b820191906000526020600020905b81548152906001019060200180831161021a57829003601f168201915b5050505050905090565b60606001805461025090610449565b80601f016020809104026020016040519081016040528092919081815260200182805461027c90610449565b80156102c95780601f1061029e576101008083540402835291602001916102c9565b820191906000526020600020905b8154815290600101906020018083116102ac57829003601f168201915b5050505050905090565b6000600254905090565b600080546102ea90610449565b80601f016020809104026020016040519081016040528092919081815260200182805461031690610449565b80156103635780601f1061033857610100808354040283529160200191610363565b820191906000526020600020905b81548152906001019060200180831161034657829003601f168201915b505050505081565b6000610376826103f0565b61038081856103fb565b9350610390818560208601610416565b610399816104aa565b840191505092915050565b6103ad8161040c565b82525050565b600060208201905081810360008301526103cd818461036b565b905092915050565b60006020820190506103ea60008301846103a4565b92915050565b600081519050919050565b600082825260208201905092915050565b6000819050919050565b60005b83811015610434578082015181840152602081019050610419565b83811115610443576000848401525b50505050565b6000600282049050600182168061046157607f821691505b602082108114156104755761047461047b565b5b50919050565b7f4e487b7100000000000000000000000000000000000000000000000000000000600052602260045260246000fd5b6000601f19601f830116905091905056fea2646970667358221220a22ac28180025dc9de20fe2b51cfe0ccef263617f87e68f4e5f8a5fb1b354d9064736f6c63430008000033",
  "immutableReferences": {},
  "source": "// SPDX-License-Identifier: MIT\npragma solidity ^0.8.0;\n\ncontract Father {\n    string public lastName = \"Kang\";\n    string public firstName = \"Char1ey\";\n    uint256 public money = 100;\n\n    constructor(string memory _firstName){\n        firstName = _firstName;\n    }\n\n    function getLastName() view public returns(string memory){\n        return lastName;\n    }\n\n    function getFirstName() view public returns(string memory){\n        return firstName;\n    }\n    \n    function getMoney() view public returns(uint256){\n        return money;\n    }\n}\n\ncontract Son is Father(\"Steve\") {\n\n}",
  "sourcePath": "/root/char1ey/workspace/Ethereum/Solidity/contracts/10.sol",
  "compiler": {
    "name": "solc",
    "version": "0.8.0+commit.c7dfd78e.Emscripten.clang"
  },
  "schemaVersion": "3.4.14",
  "updatedAt": "2023-05-29T16:06:17.110Z",
  "devdoc": {
    "kind": "dev",
    "methods": {},
    "version": 1
  },
  "userdoc": {
    "kind": "user",
    "methods": {},
    "version": 1
  }
}