{
  "contractName": "State",
  "abi": [
    {
      "inputs": [],
      "name": "a",
      "outputs": [
        {
          "internalType": "uint256",
          "name": "",
          "type": "uint256"
        }
      ],
      "stateMutability": "view",
      "type": "function"
    },
    {
      "inputs": [],
      "name": "stateA",
      "outputs": [
        {
          "internalType": "uint256",
          "name": "",
          "type": "uint256"
        }
      ],
      "stateMutability": "view",
      "type": "function"
    },
    {
      "inputs": [],
      "name": "stateB",
      "outputs": [
        {
          "internalType": "uint256",
          "name": "",
          "type": "uint256"
        }
      ],
      "stateMutability": "pure",
      "type": "function"
    },
    {
      "inputs": [],
      "name": "stateChangeA",
      "outputs": [
        {
          "internalType": "uint256",
          "name": "",
          "type": "uint256"
        }
      ],
      "stateMutability": "nonpayable",
      "type": "function"
    }
  ],
  "bytecode": "0x6080604052600160005534801561001557600080fd5b50610200806100256000396000f3fe608060405234801561001057600080fd5b506004361061004c5760003560e01c80630dbe671f146100515780631e9db7691461006f57806335e4b91f1461008d578063bf71b433146100ab575b600080fd5b6100596100c9565b6040516100669190610120565b60405180910390f35b6100776100cf565b6040516100849190610120565b60405180910390f35b6100956100e9565b6040516100a29190610120565b60405180910390f35b6100b36100ff565b6040516100c09190610120565b60405180910390f35b60005481565b600080600490506002816100e3919061013b565b91505090565b600060026000546100fa919061013b565b905090565b6000600d600081905550600054905090565b61011a81610191565b82525050565b60006020820190506101356000830184610111565b92915050565b600061014682610191565b915061015183610191565b9250827fffffffffffffffffffffffffffffffffffffffffffffffffffffffffffffffff038211156101865761018561019b565b5b828201905092915050565b6000819050919050565b7f4e487b7100000000000000000000000000000000000000000000000000000000600052601160045260246000fdfea26469706673582212206cd8b92cec53ce3a3822c5508657abb4ec8ccee6d2e717798bfdc7214cc94baa64736f6c63430008000033",
  "immutableReferences": {},
  "source": "// SPDX-License-Identifier: MIT\r\npragma solidity ^0.8.0;\r\n\r\ncontract State {\r\n    uint256 public a = 1;\r\n\r\n    function stateA () public view returns(uint256) {\r\n        return a + 2;\r\n    }\r\n    \r\n    function stateB () public pure returns(uint256) {\r\n        uint256 b = 4;\r\n        return b + 2;\r\n    }\r\n\r\n    function stateChangeA () public returns(uint256) {\r\n        a = 13;\r\n        return a;\r\n    }\r\n}\r\n",
  "sourcePath": "/home/char1ey/workspace/Ethereum/syntax/contracts/6.sol",
  "compiler": {
    "name": "solc",
    "version": "0.8.0+commit.c7dfd78e.Emscripten.clang"
  },
  "schemaVersion": "3.4.14",
  "updatedAt": "2023-05-30T05:42:08.913Z",
  "devdoc": {
    "kind": "dev",
    "methods": {},
    "version": 1
  },
  "userdoc": {
    "kind": "user",
    "methods": {},
    "version": 1
  }
}