{
  "contractName": "Unit",
  "abi": [
    {
      "inputs": [],
      "name": "value",
      "outputs": [
        {
          "internalType": "uint256",
          "name": "",
          "type": "uint256"
        }
      ],
      "stateMutability": "view",
      "type": "function"
    },
    {
      "inputs": [],
      "name": "value2",
      "outputs": [
        {
          "internalType": "uint256",
          "name": "",
          "type": "uint256"
        }
      ],
      "stateMutability": "view",
      "type": "function"
    },
    {
      "inputs": [],
      "name": "value3",
      "outputs": [
        {
          "internalType": "uint256",
          "name": "",
          "type": "uint256"
        }
      ],
      "stateMutability": "view",
      "type": "function"
    }
  ],
  "bytecode": "0x6080604052670de0b6b3a764000060005560018055633b9aca0060025534801561002857600080fd5b50610107806100386000396000f3fe6080604052348015600f57600080fd5b5060043610603c5760003560e01c80633fa4f2451460415780635d33a27f14605b578063aef52a2c146075575b600080fd5b6047608f565b6040516052919060ae565b60405180910390f35b60616095565b604051606c919060ae565b60405180910390f35b607b609b565b6040516086919060ae565b60405180910390f35b60005481565b60015481565b60025481565b60a88160c7565b82525050565b600060208201905060c1600083018460a1565b92915050565b600081905091905056fea2646970667358221220e8e437d0fc743358f5670c89b0fb0ef5f3a56ef95b09bf28289e5700db28072264736f6c63430008000033",
  "immutableReferences": {},
  "source": "// SPDX-License-Identifier: MIT\r\npragma solidity ^0.8.0;\r\n\r\ncontract Unit {\r\n    uint256 public value = 1 ether;\r\n    uint256 public value2 = 1 wei;\r\n    uint256 public value3 = 1 gwei;\r\n}",
  "sourcePath": "/home/char1ey/workspace/Ethereum/syntax/contracts/3.sol",
  "compiler": {
    "name": "solc",
    "version": "0.8.0+commit.c7dfd78e.Emscripten.clang"
  },
  "schemaVersion": "3.4.14",
  "updatedAt": "2023-05-30T05:42:08.905Z",
  "devdoc": {
    "kind": "dev",
    "methods": {},
    "version": 1
  },
  "userdoc": {
    "kind": "user",
    "methods": {},
    "version": 1
  }
}